:100000000C9434000C9449000C9449000C94490061
:100010000C9449000C9449000C9449000C9449003C
:100020000C9449000C9449000C9449000C9449002C
:100030000C9449000C9449000C9449000C9449001C
:100040000C9449000C9449000C9449000C9449000C
:100050000C9449000C9449000C9449000C944900FC
:100060000C9449000C94490011241FBECFEFD8E036
:10007000DEBFCDBF11E0A0E0B1E0E8EEF1E002C0EC
:1000800005900D92A235B107D9F70E946F000C942C
:10009000F2000C940000CF93FC0140E050E0A1E09E
:1000A000B0E0C0E44617570788F420E030E02E1790
:1000B0003F0731F0CD010197F1F72F5F3F4FF7CFA9
:1000C0009BB19C279BB94E0F5F1FECCFCF9108953A
:1000D00025E02A95F1F700000197D1F70895CF9315
:1000E000DF93CDB7DEB7E6970FB6F894DEBF0FBE4D
:1000F000CDBF569A0E94C00086E391E00E94DF00C7
:1001000082E1E0E0F1E0DE01959601900D928A95A2
:10011000E1F784E2E2E1F1E0DE01119601900D9257
:100120008A95E1F700E018E70E94D800F82E8EE4E7
:100130000E94D100FE01B59680E090E02191F2127C
:100140000EC0880F991FE1E0F0E0EC0FFD1FE80FF3
:10015000F91FB801808191810E944B00E5CF019683
:100160008231910559F78BE5F816E1F28DE5F81229
:1001700003C000E010EFD8CFC8010E946800D4CFC0
:100180001092C50087E68093C400E0ECF0E0808127
:100190008D7F808388E18093C10086E08093C200D8
:1001A00008959091C00095FFFCCF8093C6000895FC
:1001B0008091C00087FFFCCF8091C60008950F9307
:1001C0001F93CF938C01C0E0F801EC0FF11D8081EB
:1001D000882321F00E94D100CF5FF6CFCF911F91ED
:0801E0000F910895F894FFCF80
:1001E800617773656466746779686A696B6F6C7048
:1001F8003B271304D803A1036D033B030D03E1025E
:10020800B80291026C02490228020902EC01D001ED
:10021800B6019E0186012D2D2D2D2D205365726965
:10022800616C204F7267616E202D2D2D2D2D2D0DA7
:020238000A00BA
:00000001FF
