:100000000C9434000C9449000C9449000C94490061
:100010000C9449000C9449000C9449000C9449003C
:100020000C9449000C9449000C9449000C9449002C
:100030000C9449000C9449000C9449000C9449001C
:100040000C9449000C9449000C9449000C9449000C
:100050000C9449000C9449000C9449000C944900FC
:100060000C9449000C94490011241FBECFEFD8E036
:10007000DEBFCDBF11E0A0E0B1E0EEE2F1E002C0F2
:1000800005900D92A235B107D9F70E9465000C9436
:1000900095000C940000FC0140E050E080E446171D
:1000A000570790F420E030E02E173F0739F095E035
:1000B0009A95F1F700002F5F3F4FF6CF9BB198273D
:1000C0009BB94E0F5F1FEBCF0895CF93DF93CDB752
:1000D000DEB7C255D1090FB6F894DEBF0FBECDBF53
:1000E00082E5E0E0F1E0DE01119601900D928A9543
:1000F000E1F7569A5A9A00E018E24A9B02C000E0E3
:10010000FCCF011105C01F5F01E0193209F410E0B6
:10011000FE013196E10FF11DE10FF11D60E476E083
:0E012000808191810E944B00E8CFF894FFCFC0
:10012E00940094009400BB0094007D00FA00BB0084
:10013E00FA002A01DF00C700D200DF00FA009400A7
:10014E007D006F008C007D009400BB00A700C700EF
:10015E00BB00FA002A01DF00C700D200DF00FA0060
:10016E0094007D006F008C007D009400BB00A70002
:02017E00C700B8
:00000001FF
