:100000000C9434000C9449000C9449000C94490061
:100010000C9449000C9449000C9449000C9449003C
:100020000C9449000C9449000C9449000C9449002C
:100030000C9449000C9449000C9449000C9449001C
:100040000C9449000C9449000C9449000C9449000C
:100050000C9449000C9449000C9449000C944900FC
:100060000C9449000C94490011241FBECFEFD8E036
:10007000DEBFCDBF11E0A0E0B1E0E0E6F1E002C0FC
:1000800005900D92A031B107D9F70E944B000C9456
:10009000AE000C9400008FEF84B90E945E0080E0F7
:1000A00091E00E947D000E947600C82F0E9490007F
:1000B0008CE091E00E947D00C5B9F5CF1092C5009B
:1000C00087E68093C400E0ECF0E080818D7F808340
:1000D00088E18093C10086E08093C20008959091EA
:1000E000C00095FFFCCF8093C60008958091C000AA
:1000F00087FFFCCF8091C60008950F931F93CF9385
:100100008C01C0E0F801EC0FF11D8081882321F003
:100110000E946F00CF5FF6CFCF911F910F9108958E
:100120001F93CF93DF931F92CDB7DEB7898317E07C
:10013000898190E0012E02C0959587950A94E2F797
:1001400080FF02C081E301C080E30E946F00115074
:1001500078F70F90DF91CF911F910895F894FFCF1A
:1001600048656C6C6F20576F726C64210D0A00003B
:00000001FF
