:100000000C9434000C943E000C943E000C943E0082
:100010000C943E000C943E000C943E000C943E0068
:100020000C943E000C943E000C943E000C943E0058
:100030000C943E000C943E000C943E000C943E0048
:100040000C943E000C943E000C943E000C943E0038
:100050000C943E000C943E000C943E000C943E0028
:100060000C943E000C943E0011241FBECFEFD8E04C
:10007000DEBFCDBF0E9465000C948A000C94000086
:10008000229A2A9A239A2C9A259A8CB582608CBD42
:100090008CB581608CBD8CB580618CBD8CB5806465
:1000A0008CBD08958EBD0DB407FEFDCF0895CF938E
:1000B000C82F2A980E9452008C2F0E9452008C2F29
:1000C0000E9452002A9ACF9108950E9440000E94F7
:1000D00079002FEF8BE792E9215080409040E1F7C3
:1000E00000C000008FEF90E00E94570080E090E099
:1000F00008951092C50083E38093C400E0ECF0E023
:1001000080818D7F808388E18093C10086E0809329
:08011000C2000895F894FFCF2E
:00000001FF
