:100000000C9434000C9446000C9446000C9446006A
:100010000C9446000C9446000C9446000C94460048
:100020000C9446000C9446000C9446000C94460038
:100030000C9446000C9446000C9446000C94460028
:100040000C9446000C9446000C9446000C94460018
:100050000C9446000C9446000C9446000C94460008
:100060000C9446000C94460011241FBECFEFD8E03C
:10007000DEBFCDBF21E0A0E0B1E001C01D92A03005
:10008000B207E1F70E94B6000C94F7000C94000050
:10009000229A2A9A239A2C9A259A8CB582608CBD32
:1000A0008CB580618CBD8CB580648CBD08958EBD8F
:1000B0000DB407FEFDCF0895CF93C62F2A980E9456
:1000C00057008C2F0E9457002A9ACF9108956FEF06
:1000D0008CE00C945C0060E089E00C945C00682F7C
:1000E0008BE00C945C00682F8AE00C945C000E940A
:1000F000670083E00E946F008CEC0E9473000C94F8
:100100006B00EF92FF920F931F93CF93DF93C0E0AA
:10011000D0E0EE24E394F12C87010C2E01C0000FF7
:100120000A94EAF7602F81E00E945C00602F82E071
:100130000E945C00602F83E00E945C00602F84E0DE
:100140000E945C008FEF97E823E1815090402040AF
:10015000E1F700C000002196C930D105E9F6DF9132
:10016000CF911F910F91FF90EF9008952FEF87EAA5
:1001700091E6215080409040E1F700C000000E94CD
:1001800048000E94DF000E9477000E9481000E94C8
:10019000F00082958F70893039F40E94F000C82FEA
:1001A0000E94F0006C2F07C0883089F70E94F00091
:1001B0000E94F00060E081E00E945C00E8CF1092B5
:1001C000C50083E38093C400E0ECF0E080818D7F84
:1001D000808388E18093C10086E08093C200089507
:1001E0008091C00087FFFCCF8091C6000895F894ED
:0201F000FFCF3F
:00000001FF
