:100000000C9434000C9449000C9449000C94490061
:100010000C9449000C9449000C9449000C9449003C
:100020000C9449000C9449000C9449000C9449002C
:100030000C9449000C9449000C9449000C9449001C
:100040000C9449000C9449000C9449000C9449000C
:100050000C9449000C9449000C9449000C944900FC
:100060000C9449000C94490011241FBECFEFD8E036
:10007000DEBFCDBF11E0A0E0B1E0E6E4F1E002C0F8
:1000800005900D92AC31B107D9F70E9468000C942D
:10009000A1000C940000CF93FC0140E050E0A1E0EF
:1000A000B0E0C0E44617570788F420E030E02E1790
:1000B0003F0731F0CD010197F1F72F5F3F4FF7CFA9
:1000C0009BB19C279BB94E0F5F1FECCFCF9108953A
:1000D000569A0E94760080E091E00E948E0060E0D7
:1000E00078E783E194E00E944B00F9CF1092C500BD
:1000F00083E38093C400E0ECF0E080818D7F808317
:1001000088E18093C10086E08093C20008959091B9
:10011000C00095FFFCCF8093C60008950F931F93F6
:10012000CF938C01C0E0F801EC0FF11D8081882392
:1001300021F00E948700CF5FF6CFCF911F910F91E2
:060140000895F894FFCFC2
:100146002D2D2D2D2D2053657269616C204F726700
:0C015600616E202D2D2D2D2D2D0D0A0089
:00000001FF
