:100000000C9434000C9446000C9446000C9446006A
:100010000C9446000C9446000C9446000C94460048
:100020000C9446000C9446000C9446000C94460038
:100030000C9446000C9446000C9446000C94460028
:100040000C9446000C9446000C9446000C94460018
:100050000C9446000C9446000C9446000C94460008
:100060000C9446000C94460011241FBECFEFD8E03C
:10007000DEBFCDBF21E0A0E0B1E001C01D92A13004
:10008000B207E1F70E946F000C94A3000C940000EB
:10009000229A2A9A239A2C9A259A8CB581608CBD33
:1000A0008CB580618CBD8CB580648CBD08958EBD8F
:1000B0000DB407FEFDCF0895CF93C62F2A980E9456
:1000C00057008C2F0E9457002A9ACF910895609173
:1000D00000016260609300018EE00C945C000E945D
:1000E00048000E9492000E946700C0EDD7E08FE1B7
:1000F0009EE40197F1F700C0000068E081E00E94F3
:100100005C0060E082E00E945C0060E083E00E94AE
:100110005C0068E084E00E945C00219741F790E079
:1001200080E008951092C50083E38093C400E0EC62
:10013000F0E080818D7F808388E18093C10086E03C
:0A0140008093C2000895F894FFCFE9
:00000001FF
