:100000000C9434000C9451000C9451000C94510049
:100010000C9451000C9451000C9451000C9451001C
:100020000C9451000C9451000C9451000C9451000C
:100030000C9451000C9451000C9451000C945100FC
:100040000C9451000C9451000C9451000C945100EC
:100050000C9451000C9451000C9451000C945100DC
:100060000C9451000C94510011241FBECFEFD8E026
:10007000DEBFCDBF11E0A0E0B1E0EAE1F3E002C0F5
:1000800005900D92A434B107D9F721E0A4E4B1E0C2
:1000900001C01D92A434B207E1F70E9411010C9433
:1000A00080010C940000229A2A9A239A2C9A259A6D
:1000B0008CB582608CBD8CB580618CBD8CB5806444
:1000C0008CBD08958EBD0DB407FEFDCF0895CF936E
:1000D000C62F2A980E9462008C2F0E9462002A9AE2
:1000E000CF9108956FEF8CE00C94670060E089E099
:1000F0000C946700682F8BE00C946700682F8AE0EF
:100100000C9467000E94720083E00E947A008CECDD
:100110000E947E000C947600EF92FF920F931F9343
:10012000CF93DF93D0E0C0E0EE24E394F12C87017D
:100130000C2E01C0000F0A94EAF7602F81E00E94A4
:100140006700602F82E00E946700602F83E00E94BA
:100150006700602F84E00E9467008FEF97EB2BE031
:10016000815090402040E1F700C000002196C93046
:10017000D105E9F6DF91CF911F910F91FF90EF909C
:1001800008958D52833430F4E82FF0E0E050FF4FB3
:100190008081089580E00895CF93C82F862F0E9414
:1001A000C100682F8C2FCF910C94670082958F70BF
:1001B00021E030E0893011F030E020E0C9010895FD
:1001C00082958F7021E030E0883011F030E020E03F
:1001D000C90108956CE00E946E01805D91509B30D2
:1001E00030F4E92FF0E0EE57FE4F0C947A0163E40F
:1001F0007DE2089564E672E6089564E6F9CF65E469
:10020000FACF65E4F5CF66E6F3CF67E4F4CF67E4B1
:10021000EFCF61E4F0CF61E4EBCF62E6ECCF62E6D2
:10022000E7CF2FEF87EA91E6215080409040E1F739
:1002300000C000000E9453000E9456010E948200EC
:100240000E948C0001E010E00E946701C82F0E940C
:10025000D600892BB1F00E946701C82F0E94670168
:100260008C2F0E94EA00D72FC82F81E00E94CC007B
:100270006D2F82E00E94CC006C2F83E00E94CC00A6
:10028000E3CF8C2F0E94E000892B49F00E94670188
:100290000E94670160E081E00E946700D5CFB8014D
:1002A00001C0660FCA95EAF784E0F6CF1092C50048
:1002B0008FE18093C400E0ECF0E080818D7F80834B
:1002C00088E18093C10086E08093C2000895809108
:1002D000C00087FFFCCF8091C6000895991B79E08C
:1002E00004C0991F961708F0961B881F7A95C9F7C6
:1002F00080950895EE0FFF1F0590F491E02D09946D
:10030000F894FFCFFA00FD00FF0001010301050191
:0A031000070109010B010D010F01A7
:10031A000100007E306D79335B5F707F73000000EF
:10032A0000000000777F4E7E4F475E00000000000D
:10033A0000007E0000000000000000000000000035
:10034A00000000007D1F0D3D6F477B00000000008C
:04035A0000001D0082
:00000001FF
