:100000000C9434000C943E000C943E000C943E0082
:100010000C943E000C943E000C943E000C943E0068
:100020000C943E000C943E000C943E000C943E0058
:100030000C943E000C943E000C943E000C943E0048
:100040000C943E000C943E000C943E000C943E0038
:100050000C943E000C943E000C943E000C943E0028
:100060000C943E000C943E0011241FBECFEFD8E04C
:10007000DEBFCDBF0E9460000C947C000C94000099
:10008000229A2A9A239A2C9A259A8CB581608CBD43
:100090008CB580618CBD8CB580648CBD08958EBD9F
:1000A0000DB407FEFDCF0895CF93C82F892F2A984E
:1000B0000E944F008C2F0E944F002A9ACF910895E2
:1000C0000E9440000E946B008FEF90E00E9454005D
:1000D00090E080E008951092C50083E38093C4000F
:1000E000E0ECF0E080818D7F808388E18093C10027
:0C00F00086E08093C2000895F894FFCFD2
:00000001FF
