:100000000C943F000C945C000C945C000C945C001D
:100010000C945C000C945C000C945C000C945C00F0
:100020000C945C000C945C000C945C000C945C00E0
:100030000C945C000C945C000C945C000C945C00D0
:100040000C945C000C945C000C945C000C945C00C0
:100050000C945C000C945C000C945C000C945C00B0
:100060000C945C000C945C00820085008700890081
:100070008B008D008F009100930095009700112454
:100080001FBECFEFD8E0DEBFCDBF11E0A0E0B1E0F2
:10009000E0E9F3E002C005900D92A834B107D9F76A
:1000A00021E0A8E4B1E001C01D92A834B207E1F755
:1000B0000E944F010C94C6010C94000082958F7031
:1000C00021E030E0893011F030E020E0C9010895EE
:1000D00082958F7021E030E0883011F030E020E030
:1000E000C90108956CE00E94B401805D91509B307D
:1000F00030F4E92FF0E0EC5CFF4F0C94C00163E4B6
:100100007DE2089564E672E6089564E6F9CF65E459
:10011000FACF65E4F5CF66E6F3CF67E4F4CF67E4A2
:10012000EFCF61E4F0CF61E4EBCF62E6ECCF62E6C3
:10013000E7CF229A2A9A239A2C9A259A8CB5826024
:100140008CBD8CB580618CBD8CB580648CBD0895F0
:100150008EBD0DB407FEFDCF0895CF93C62F2A980C
:100160000E94A8008C2F0E94A8002A9ACF9108957F
:100170008130910559F01CF4892B59F009C0823067
:10018000910549F0039721F484E0089582E00895F1
:10019000089581E0089583E0089561E08CE00C9477
:1001A000AD0060E089E00C94AD00682F8BE00C940A
:1001B000AD00682F8AE00C94AD000E94CD0083E072
:1001C0000E94D50081E00E94D9000C94D100EF92EA
:1001D000FF920F931F93CF93DF93C0E0D0E0EE2404
:1001E000E394F12C87010C2E01C0000F0A94EAF76A
:1001F000602F81E00E94AD00602F82E00E94AD0080
:10020000602F83E00E94AD00602F84E00E94AD006B
:100210008FEF93EC29E0815090402040E1F700C03F
:1002200000002196C930D105E9F6DF91CF911F91E9
:100230000F91FF90EF9008958D52833430F4E82FA2
:10024000F0E0E050FF4F8081089580E00895CF9363
:10025000C82F862F0E941C01682F8C2FCF910C94E1
:10026000AD00FF920F931F93CF93DF938C01C0E0FB
:10027000D0E0F80181918F010E941C01F82ECE017F
:100280000E94B8006F2D0E94AD002196C430D105A8
:1002900081F7DF91CF911F910F91FF9008952FEF7C
:1002A00087EA91E6215080409040E1F700C00000CD
:1002B0000E9499000E949C010E94DD000E94E700BC
:1002C00083E491E00E9431010E94AD01C82F60E0FB
:1002D00084E00E94AD008C2F0E945E00892BF1F01B
:1002E0000E94AD01C82F0E94AD018C2F0E947200A8
:1002F000D72FC82F81E00E942701DD3231F46C2F07
:1003000082E00E94270160E005C06D2F82E00E941C
:1003100027016C2F83E00E942701D6CF8C2F0E94EB
:100320006800892B89F20E94AD010E94AD0160E056
:1003300081E00E94AD00C8CF1092C5008FE180938C
:10034000C400E0ECF0E080818D7F808388E18093C1
:10035000C10086E08093C20008958091C00087FFAD
:10036000FCCF8091C6000895991B79E004C0991FC5
:10037000961708F0961B881F7A95C9F780950895FF
:10038000EE0FFF1F0590F491E02D0994F894FFCF34
:100390000100007E306D79335B5F707F7300000079
:1003A00000000000777F4E7E4F475E370000000E52
:1003B00000007E00000000000000000000000000BF
:1003C000000000007D1F0D3D6F477B1700000030CF
:0803D00000001D484F4C4100E4
:00000001FF
