:100000000C9434000C9446000C9446000C9446006A
:100010000C9446000C9446000C9446000C94460048
:100020000C9446000C9446000C9446000C94460038
:100030000C9446000C9446000C9446000C94460028
:100040000C9446000C9446000C9446000C94460018
:100050000C9446000C9446000C9446000C94460008
:100060000C9446000C94460011241FBECFEFD8E03C
:10007000DEBFCDBF21E0A0E0B1E001C01D92A13004
:10008000B207E1F70E9483000C94BB000C940000BF
:10009000229A2A9A239A2C9A259A8CB582608CBD32
:1000A0008CB580618CBD8CB580648CBD08958EBD8F
:1000B0000DB407FEFDCF0895CF93C62F2A980E9456
:1000C00057008C2F0E9457002A9ACF9108956FE015
:1000D00089E00C945C00682F8BE00C945C00682F26
:1000E0008AE00C945C006091000164606093000100
:1000F0008EE00C945C0060910001606160930001EF
:100100008EE00C945C000E9448000E94AA006FEFF1
:100110008CE00E945C0083E00E946B0083E30E94FD
:100120006F000E9467000E9473000E947B0068E0DD
:1001300081E00E945C0060E082E00E945C0060E080
:1001400083E00E945C0068E084E00E945C0080E044
:1001500090E008951092C50083E38093C400E0EC22
:10016000F0E080818D7F808388E18093C10086E00C
:0A0170008093C2000895F894FFCFB9
:00000001FF
