:100000000C9434000C9446000C9446000C9446006A
:100010000C9446000C9446000C9446000C94460048
:100020000C9446000C9446000C9446000C94460038
:100030000C9446000C9446000C9446000C94460028
:100040000C9446000C9446000C9446000C94460018
:100050000C9446000C9446000C9446000C94460008
:100060000C9446000C94460011241FBECFEFD8E03C
:10007000DEBFCDBF21E0A0E0B1E001C01D92A13004
:10008000B207E1F70E947F000C94CC000C940000B2
:10009000229A2A9A239A2C9A259A8CB582608CBD32
:1000A0008CB580618CBD8CB580648CBD08958EBD8F
:1000B0000DB407FEFDCF0895CF93C62F2A980E9456
:1000C00057008C2F0E9457002A9ACF9108956FEF06
:1000D0008CE00C945C006FE089E00C945C00682F6D
:1000E0008BE00C945C00682F8AE00C945C006091BB
:1000F00000016460609300018EE00C945C000E943B
:1001000048000E94B4000E94670083E00E946F00D4
:1001100083E30E9473000E946B000E94770063E0FB
:1001200081E00E945C0063E082E00E945C0063E08A
:1001300083E00E945C0063E084E00E945C000E9417
:10014000C50082958F70883039F460E081E00E94AC
:100150005C0060E082E0F1CF893089F761E081E006
:100160000E945C0061E0F6CF1092C50083E38093AB
:10017000C400E0ECF0E080818D7F808388E1809393
:10018000C10086E08093C20008958091C00087FF7F
:0C019000FCCF8091C6000895F894FFCFCA
:00000001FF
